:1000000009C021C020C01FC01EC01DC01CC01BC015
:100010001AC019C011241FBECFE9CDBF10E0A4E65D
:10002000B0E001C01D92A636B107E1F710E0A0E6EE
:10003000B0E0EEECF3E002C005900D92A436B107FB
:10004000D9F776D0C2C1DCCF07C0EFECF7E031972B
:10005000F1F700C0000001970097B9F708950F93DA
:100060001F93CF93DF93EC018B0103C0C801ECDF3A
:1000700021972097D9F7DF91CF911F910F91089584
:100080000F931F93CF93DF93EC018B01C49A03C0AE
:10009000C801DADF21972097D9F7C498DF91CF9173
:1000A0001F910F910895CF93DF93EC0109C0C49A7B
:1000B00084E690E0C9DFC49884E690E0C5DF21972C
:1000C0002097A9F7DF91CF9108950F931F93CF93B6
:1000D000DF93EC018B01C7D09C01B8016F5F7F4FAC
:1000E0008FEF9FE759D0C90157D06C0F7D1FCB010F
:1000F000DF91CF911F910F910895C298BA988DE02A
:1001000087B986B1836C86B93699FECF089597B1C9
:100110008F70907F892B87B9369A3699FECF24B19C
:1001200035B1932F80E030E0282B392BC901089599
:10013000CF93E3DF17BABC9A85E090E0B4DF81E0AB
:1001400090E0A0D0C82FCF5F81E090E06C2FA2D0CC
:100150008C2F90E08CD081E0DADF90936500809363
:1001600064008AE090E070DF809164009091650007
:100170008436910584F782E090E063E070E0A5DFCB
:1001800064E670E07DDF83E090E06AE070E09DDF90
:100190006AE070E064DFDFCF97FB092E07260AD004
:1001A00077FD04D00CD006D000201AF4709561952C
:1001B0007F4F0895F6F7909581959F4F0895AA1B5C
:1001C000BB1B51E107C0AA1FBB1FA617B70710F042
:1001D000A61BB70B881F991F5A95A9F78095909574
:1001E000BC01CD010895A0E0B0E0E8EFF0E09CC0D4
:1001F000EC01688179818A819B8161157105810596
:10020000910521F464E279ED8BE597E02DE133EF80
:1002100041E050E066D079018A0127EA31E440E00C
:1002200050E046D05B016C01C801B7012CEE34EF01
:100230004FEF5FEF3DD09B01AC012A0D3B1D4C1DE4
:100240005D1D57FF04C02150304040405048288376
:1002500039834A835B833F77C901CDB7DEB7EAE0D4
:100260007FC0C1DF089580E690E0BDDF0895A0E083
:10027000B0E08093600090936100A0936200B0931F
:1002800063000895E199FECF1FBA8EBBE09A9927CB
:100290008DB30895262FE199FECF1CBA1FBA8EBBED
:1002A0002DBB0FB6F894E29AE19A0FBE019608951D
:1002B000FF27EE27BB27AA2760FF04C0A20FB31FAA
:1002C000E41FF51F220F331F441F551F9695879576
:1002D0007795679589F70097760771F7CF01BD018C
:1002E000089597FB092E05260ED057FD04D04BD05C
:1002F0000AD0001C38F450954095309521953F4F19
:100300004F4F5F4F0895F6F79095809570956195E2
:100310007F4F8F4F9F4F08952F923F924F925F9242
:100320006F927F928F929F92AF92BF92CF92DF9205
:10033000EF92FF920F931F93CF93DF93CDB7DEB76A
:10034000CA1BDB0B0FB6F894DEBF0FBECDBF0994FE
:100350002A88398848885F846E847D848C849B8455
:10036000AA84B984C884DF80EE80FD800C811B8163
:10037000AA81B981CE0FD11D0FB6F894DEBF0FBE92
:10038000CDBFED010895A1E21A2EAA1BBB1BFD01F2
:100390000DC0AA1FBB1FEE1FFF1FA217B307E40764
:1003A000F50720F0A21BB30BE40BF50B661F771FBC
:1003B000881F991F1A9469F760957095809590959C
:0E03C0009B01AC01BD01CF010895F894FFCF61
:0403CE00010000002A
:00000001FF
